{
  "abi": [
    {
      "anonymous": false,
      "inputs": [
        {
          "indexed": false,
          "internalType": "address",
          "name": "who",
          "type": "address"
        },
        {
          "indexed": false,
          "internalType": "bytes4",
          "name": "fsig",
          "type": "bytes4"
        },
        {
          "indexed": false,
          "internalType": "bytes32",
          "name": "keysHash",
          "type": "bytes32"
        },
        {
          "indexed": false,
          "internalType": "uint256",
          "name": "slot",
          "type": "uint256"
        }
      ],
      "name": "SlotFound",
      "type": "event"
    },
    {
      "anonymous": false,
      "inputs": [
        {
          "indexed": false,
          "internalType": "address",
          "name": "who",
          "type": "address"
        },
        {
          "indexed": false,
          "internalType": "uint256",
          "name": "slot",
          "type": "uint256"
        }
      ],
      "name": "WARNING_UninitedSlot",
      "type": "event"
    },
    {
      "inputs": [
        {
          "internalType": "bytes",
          "name": "b",
          "type": "bytes"
        },
        {
          "internalType": "uint256",
          "name": "offset",
          "type": "uint256"
        }
      ],
      "name": "bytesToBytes32",
      "outputs": [
        {
          "internalType": "bytes32",
          "name": "",
          "type": "bytes32"
        }
      ],
      "stateMutability": "pure",
      "type": "function"
    }
  ],
  "bytecode": {
    "object": "0x6080806040523461001a5761030c9081610020823930815050f35b600080fdfe6080604052600436101561001257600080fd5b6000803560e01c6353584939146100295750600080fd5b60407ffffffffffffffffffffffffffffffffffffffffffffffffffffffffffffffffc3601126101265767ffffffffffffffff600435818111610122573660238201121561012257806004013590828211610115575b604051927fffffffffffffffffffffffffffffffffffffffffffffffffffffffffffffffe0603f81601f860116011684019084821090821117610108575b604052818352366024838301011161010457926020826100f09493602461010097018386013783010152602435906101cb565b6040519081529081906020820190565b0390f35b8380fd5b610110610129565b6100bd565b61011d610129565b61007f565b8280fd5b80fd5b507f4e487b7100000000000000000000000000000000000000000000000000000000600052604160045260246000fd5b507f4e487b7100000000000000000000000000000000000000000000000000000000600052601160045260246000fd5b807fffffffffffffffffffffffffffffffffffffffffffffffffffffffffffffffff04600811811515166101be575b60031b90565b6101c6610159565b6101b8565b8051919291600091602091828111156102ca57509293919290805b84925b8184106101f857505050505090565b909192939594841987116102bd575b84870190825182101561028e57908201840151600191907fff000000000000000000000000000000000000000000000000000000000000001661024987610189565b1c17947fffffffffffffffffffffffffffffffffffffffffffffffffffffffffffffffff8114610281575b01929190959394956101e9565b610289610159565b610274565b7f4e487b7100000000000000000000000000000000000000000000000000000000600052603260045260246000fd5b6102c5610159565b610207565b949293949190916101e656fea2646970667358221220eae3cf571b899122b3227a63d401513f07e44acf9b9f773b4fac717eb74f0d8a64736f6c634300080d0033",
    "linkReferences": {}
  },
  "methodIdentifiers": {
    "bytesToBytes32(bytes,uint256)": "53584939"
  },
  "id": 3
}