{
  "abi": [
    {
      "inputs": [],
      "stateMutability": "payable",
      "type": "constructor"
    },
    {
      "inputs": [],
      "name": "SetPriceError",
      "type": "error"
    },
    {
      "anonymous": false,
      "inputs": [
        {
          "indexed": true,
          "internalType": "address",
          "name": "to",
          "type": "address"
        },
        {
          "indexed": false,
          "internalType": "uint256",
          "name": "sqrtPrice",
          "type": "uint256"
        },
        {
          "indexed": false,
          "internalType": "uint256",
          "name": "liquidity",
          "type": "uint256"
        }
      ],
      "name": "Allocate",
      "type": "event"
    },
    {
      "inputs": [],
      "name": "SCALAR",
      "outputs": [
        {
          "internalType": "uint256",
          "name": "",
          "type": "uint256"
        }
      ],
      "stateMutability": "view",
      "type": "function"
    },
    {
      "inputs": [
        {
          "internalType": "uint256",
          "name": "desiredPrice",
          "type": "uint256"
        }
      ],
      "name": "_setSqrtPrice",
      "outputs": [
        {
          "internalType": "bool",
          "name": "success",
          "type": "bool"
        }
      ],
      "stateMutability": "nonpayable",
      "type": "function"
    },
    {
      "inputs": [
        {
          "internalType": "address",
          "name": "to",
          "type": "address"
        },
        {
          "internalType": "uint256",
          "name": "liquidity",
          "type": "uint256"
        },
        {
          "internalType": "uint256",
          "name": "sqrtPrice",
          "type": "uint256"
        }
      ],
      "name": "allocate",
      "outputs": [
        {
          "internalType": "uint256",
          "name": "amount0",
          "type": "uint256"
        },
        {
          "internalType": "uint256",
          "name": "amount1",
          "type": "uint256"
        }
      ],
      "stateMutability": "nonpayable",
      "type": "function"
    },
    {
      "inputs": [
        {
          "internalType": "address",
          "name": "",
          "type": "address"
        },
        {
          "internalType": "address",
          "name": "",
          "type": "address"
        }
      ],
      "name": "balanceOf",
      "outputs": [
        {
          "internalType": "uint256",
          "name": "",
          "type": "uint256"
        }
      ],
      "stateMutability": "view",
      "type": "function"
    },
    {
      "inputs": [],
      "name": "currentIndex",
      "outputs": [
        {
          "internalType": "uint256",
          "name": "",
          "type": "uint256"
        }
      ],
      "stateMutability": "view",
      "type": "function"
    },
    {
      "inputs": [
        {
          "internalType": "uint256",
          "name": "deltaX",
          "type": "uint256"
        },
        {
          "internalType": "uint256",
          "name": "liquidity",
          "type": "uint256"
        }
      ],
      "name": "getChangeInPriceGivenX",
      "outputs": [
        {
          "internalType": "uint256",
          "name": "deltaSqrtPrice",
          "type": "uint256"
        }
      ],
      "stateMutability": "view",
      "type": "function"
    },
    {
      "inputs": [
        {
          "internalType": "uint256",
          "name": "deltaSqrtPrice",
          "type": "uint256"
        },
        {
          "internalType": "uint256",
          "name": "liquidity",
          "type": "uint256"
        }
      ],
      "name": "getChangeInYGivenChangeInPrice",
      "outputs": [
        {
          "internalType": "uint256",
          "name": "deltaY",
          "type": "uint256"
        }
      ],
      "stateMutability": "view",
      "type": "function"
    },
    {
      "inputs": [],
      "name": "getCurrentSqrtPrice",
      "outputs": [
        {
          "internalType": "uint256",
          "name": "",
          "type": "uint256"
        }
      ],
      "stateMutability": "view",
      "type": "function"
    },
    {
      "inputs": [
        {
          "internalType": "uint256",
          "name": "sqrtPrice",
          "type": "uint256"
        }
      ],
      "name": "getLiquidityAtSqrtPrice",
      "outputs": [
        {
          "internalType": "uint256",
          "name": "liquidity",
          "type": "uint256"
        }
      ],
      "stateMutability": "view",
      "type": "function"
    },
    {
      "inputs": [
        {
          "internalType": "uint256",
          "name": "index",
          "type": "uint256"
        }
      ],
      "name": "getNextSqrtPrice",
      "outputs": [
        {
          "internalType": "uint256",
          "name": "nextPrice",
          "type": "uint256"
        }
      ],
      "stateMutability": "view",
      "type": "function"
    },
    {
      "inputs": [
        {
          "internalType": "uint256",
          "name": "swapAmount",
          "type": "uint256"
        },
        {
          "internalType": "uint256",
          "name": "currentSqrtPrice",
          "type": "uint256"
        },
        {
          "internalType": "uint256",
          "name": "nextPrice",
          "type": "uint256"
        },
        {
          "internalType": "uint256",
          "name": "liquidity",
          "type": "uint256"
        }
      ],
      "name": "getSwapAmounts",
      "outputs": [
        {
          "internalType": "uint256",
          "name": "price",
          "type": "uint256"
        },
        {
          "internalType": "uint256",
          "name": "amountIn",
          "type": "uint256"
        },
        {
          "internalType": "uint256",
          "name": "amountOut",
          "type": "uint256"
        }
      ],
      "stateMutability": "view",
      "type": "function"
    },
    {
      "inputs": [
        {
          "internalType": "uint256",
          "name": "",
          "type": "uint256"
        }
      ],
      "name": "grid",
      "outputs": [
        {
          "internalType": "uint256",
          "name": "",
          "type": "uint256"
        }
      ],
      "stateMutability": "view",
      "type": "function"
    },
    {
      "inputs": [
        {
          "internalType": "address",
          "name": "",
          "type": "address"
        },
        {
          "internalType": "uint256",
          "name": "",
          "type": "uint256"
        }
      ],
      "name": "positions",
      "outputs": [
        {
          "internalType": "uint256",
          "name": "",
          "type": "uint256"
        }
      ],
      "stateMutability": "view",
      "type": "function"
    },
    {
      "inputs": [
        {
          "internalType": "uint256",
          "name": "amount",
          "type": "uint256"
        },
        {
          "internalType": "uint256",
          "name": "price",
          "type": "uint256"
        }
      ],
      "name": "remove",
      "outputs": [],
      "stateMutability": "nonpayable",
      "type": "function"
    },
    {
      "inputs": [
        {
          "internalType": "address",
          "name": "user",
          "type": "address"
        },
        {
          "internalType": "address",
          "name": "token",
          "type": "address"
        },
        {
          "internalType": "uint256",
          "name": "amount",
          "type": "uint256"
        }
      ],
      "name": "setBalance",
      "outputs": [],
      "stateMutability": "nonpayable",
      "type": "function"
    },
    {
      "inputs": [
        {
          "internalType": "address",
          "name": "token0_",
          "type": "address"
        },
        {
          "internalType": "address",
          "name": "token1_",
          "type": "address"
        }
      ],
      "name": "setTokens",
      "outputs": [],
      "stateMutability": "nonpayable",
      "type": "function"
    },
    {
      "inputs": [
        {
          "internalType": "uint256",
          "name": "",
          "type": "uint256"
        }
      ],
      "name": "sqrtGrid",
      "outputs": [
        {
          "internalType": "uint256",
          "name": "",
          "type": "uint256"
        }
      ],
      "stateMutability": "view",
      "type": "function"
    },
    {
      "inputs": [
        {
          "internalType": "uint256",
          "name": "amount",
          "type": "uint256"
        },
        {
          "internalType": "uint256",
          "name": "limitPrice",
          "type": "uint256"
        }
      ],
      "name": "swap",
      "outputs": [
        {
          "internalType": "uint256",
          "name": "price",
          "type": "uint256"
        },
        {
          "internalType": "uint256",
          "name": "amountIn",
          "type": "uint256"
        },
        {
          "internalType": "uint256",
          "name": "amountOut",
          "type": "uint256"
        }
      ],
      "stateMutability": "nonpayable",
      "type": "function"
    },
    {
      "inputs": [
        {
          "internalType": "uint256",
          "name": "",
          "type": "uint256"
        }
      ],
      "name": "ticks",
      "outputs": [
        {
          "internalType": "uint256",
          "name": "",
          "type": "uint256"
        }
      ],
      "stateMutability": "view",
      "type": "function"
    },
    {
      "inputs": [],
      "name": "token0",
      "outputs": [
        {
          "internalType": "address",
          "name": "",
          "type": "address"
        }
      ],
      "stateMutability": "view",
      "type": "function"
    },
    {
      "inputs": [],
      "name": "token1",
      "outputs": [
        {
          "internalType": "address",
          "name": "",
          "type": "address"
        }
      ],
      "stateMutability": "view",
      "type": "function"
    },
    {
      "inputs": [],
      "name": "user",
      "outputs": [
        {
          "internalType": "address",
          "name": "",
          "type": "address"
        }
      ],
      "stateMutability": "view",
      "type": "function"
    }
  ],
  "bytecode": {
    "object": "0x608060405261000c61009a565b6001908181526020906004828201526009604082015260106060820152601960808201526006906000905b60058210610084576100758461005b61004e61009a565b6001815291820160029052565b6003604082015260046060820152600560808201526100cf565b604051610e9990816100fd8239f35b805160ff16835591840191908401908301610037565b6040519060a082016001600160401b038111838210176100b957604052565b634e487b7160e01b600052604160045260246000fd5b600b906000905b600582106100e357505050565b600160208260ff839451168655019301910190916100d656fe60806040526004361015610013575b600080fd5b60003560e01c80630dfe1681146101c25780631ffc1e401461018c57806326987b60146101b957806329fee4e0146101b05780634d0b2e79146101a75780634f8632ba1461019e57806351d2cc8f14610195578063534cb30d1461018c5780636526db7a146101835780636bf301a41461017a5780637cca1724146101715780637f9bb5e614610168578063ab3f22d51461015f578063b4f6943014610156578063b5c9cbbe1461014d578063b667a61f14610144578063c1be66771461013b578063cb20653f14610132578063cbc7854e14610129578063d21220a714610120578063d96073cf146101175763f7888aec1461010f57600080fd5b61000e6109f6565b5061000e6108bb565b5061000e610886565b5061000e610810565b5061000e6107ca565b5061000e610774565b5061000e61074a565b5061000e6106d5565b5061000e6106b6565b5061000e610476565b5061000e610403565b5061000e6103cf565b5061000e6103ab565b5061000e610333565b5061000e6101f7565b5061000e610306565b5061000e610290565b5061000e610267565b5061000e610243565b5061000e610224565b503461000e57600060031936011261000e57602073ffffffffffffffffffffffffffffffffffffffff60005416604051908152f35b503461000e57602060031936011261000e5760043560005260056020526020604060002054604051908152f35b503461000e57600060031936011261000e576020601054604051908152f35b503461000e57600060031936011261000e57602061025f610bd8565b604051908152f35b503461000e57602060031936011261000e576020610286600435610b67565b6040519015158152f35b503461000e57600060031936011261000e57602073ffffffffffffffffffffffffffffffffffffffff60025416604051908152f35b60058110156102d757600b0190600090565b7f4e487b7100000000000000000000000000000000000000000000000000000000600052603260045260246000fd5b503461000e57602060031936011261000e57600435600581101561000e5760209060060154604051908152f35b503461000e57604060031936011261000e57600435602435906000913383526004602052604083208184526020526040832082815481811061039e575b0390558252600560205260408220908154818110610391575b039055604051f35b610399610b08565b610389565b6103a6610b08565b610370565b503461000e57600060031936011261000e576020604051670de0b6b3a76400008152f35b503461000e57604060031936011261000e576020670de0b6b3a76400006103fa602435600435610cc1565b04604051908152f35b503461000e57602060031936011261000e57600435600581101561000e57602090600b0154604051908152f35b6004359073ffffffffffffffffffffffffffffffffffffffff8216820361000e57565b6024359073ffffffffffffffffffffffffffffffffffffffff8216820361000e57565b503461000e57606060031936011261000e57610490610430565b6024356044357fe2a6fbb55be829f7f41ce6980e5fc3057544b2788af2e168fbf7a3db02284e7b73ffffffffffffffffffffffffffffffffffffffff670de0b6b3a764000094847fffffffffffffffffffffffffffffffffffffffffffffffffffffffffffffffff048611851515166106a9575b61069161051385888802610cf2565b95806105466105336105258984610cc1565b670de0b6b3a7640000900490565b9988046000526005602052604060002090565b556105b26105748473ffffffffffffffffffffffffffffffffffffffff166000526003602052604060002090565b60005473ffffffffffffffffffffffffffffffffffffffff165b73ffffffffffffffffffffffffffffffffffffffff16600052602052604060002090565b6105bd888254610b38565b905561060a6105ec8473ffffffffffffffffffffffffffffffffffffffff166000526003602052604060002090565b60015473ffffffffffffffffffffffffffffffffffffffff1661058e565b610615898254610b38565b90556106696106448473ffffffffffffffffffffffffffffffffffffffff166000526003602052604060002090565b3073ffffffffffffffffffffffffffffffffffffffff16600052602052604060002090565b610674828254610b4f565b905560405193849316958360209093929193604081019481520152565b0390a2604080519182526020820192909252f35b0390f35b6106b1610b08565b610504565b503461000e57602060031936011261000e57602061025f600435610bed565b503461000e57606060031936011261000e576106ef610430565b73ffffffffffffffffffffffffffffffffffffffff61070c610453565b911660005260036020526107476044359160406000209073ffffffffffffffffffffffffffffffffffffffff16600052602052604060002090565b55005b503461000e57604060031936011261000e57602061025f60043561076f602435610c7a565b610cf2565b503461000e57604060031936011261000e5773ffffffffffffffffffffffffffffffffffffffff6107a3610430565b16600052600460205260406000206024356000526020526020604060002054604051908152f35b503461000e57608060031936011261000e576106a56107f3606435604435602435600435610c2e565b604080519384526020840192909252908201529081906060820190565b503461000e57604060031936011261000e5761082a610430565b610832610453565b73ffffffffffffffffffffffffffffffffffffffff90817fffffffffffffffffffffffff00000000000000000000000000000000000000009316836000541617600055169060015416176001556000604051f35b503461000e57600060031936011261000e57602073ffffffffffffffffffffffffffffffffffffffff60015416604051908152f35b503461000e57604060031936011261000e576106a56109586108db610bd8565b806000526005602052604060002054906108f6601054610bed565b9061093560405161090681610a9e565b601d81527f43616c6c696e672067657453776170416d6f756e747320776974683a200000006020820152610dac565b61093e81610d2b565b61094783610d2b565b61095082610d2b565b600435610c2e565b61096483949294610b67565b506109926105743373ffffffffffffffffffffffffffffffffffffffff166000526003602052604060002090565b61099d858254610b38565b90556109cc6105ec3373ffffffffffffffffffffffffffffffffffffffff166000526003602052604060002090565b6109d7828254610b4f565b9055604051938493846040919493926060820195825260208201520152565b503461000e57604060031936011261000e576020610a65610a15610430565b73ffffffffffffffffffffffffffffffffffffffff610a32610453565b91166000526003835260406000209073ffffffffffffffffffffffffffffffffffffffff16600052602052604060002090565b54604051908152f35b507f4e487b7100000000000000000000000000000000000000000000000000000000600052604160045260246000fd5b6040810190811067ffffffffffffffff821117610aba57604052565b610ac2610a6e565b604052565b90601f7fffffffffffffffffffffffffffffffffffffffffffffffffffffffffffffffe0910116810190811067ffffffffffffffff821117610aba57604052565b507f4e487b7100000000000000000000000000000000000000000000000000000000600052601160045260246000fd5b818110610b43570390565b610b4b610b08565b0390565b81198111610b5b570190565b610b63610b08565b0190565b9060009160005b60058103610bab575b50508115610b8157565b60046040517f65d89658000000000000000000000000000000000000000000000000000000008152fd5b610bb4816102c5565b90549060031b1c8214610bc957600101610b6e565b60105550600191503880610b77565b610be36010546102c5565b90549060031b1c90565b6001610be3917ffffffffffffffffffffffffffffffffffffffffffffffffffffffffffffffffe8111610c21575b016102c5565b610c29610b08565b610c1b565b929190670de0b6b3a7640000610c51610c4a8661076f87610c7a565b9485610cc1565b0492818310610c6d575b8183031015610c68575092565b905092565b610c75610b08565b610c5b565b670de0b6b3a764000090807fffffffffffffffffffffffffffffffffffffffffffffffffffffffffffffffff04821181151516610cb5570290565b610cbd610b08565b0290565b807fffffffffffffffffffffffffffffffffffffffffffffffffffffffffffffffff04821181151516610cb5570290565b8115610cfc570490565b7f4e487b7100000000000000000000000000000000000000000000000000000000600052601260045260246000fd5b610d8290604051907ff5b1bba90000000000000000000000000000000000000000000000000000000060208301526024820152602481526060810181811067ffffffffffffffff821117610d84575b604052610d91565b565b610d8c610a6e565b610d7a565b600080916020815191016a636f6e736f6c652e6c6f675afa50565b9060405160207f41304fac00000000000000000000000000000000000000000000000000000000818301528060248301528351908160448401526000945b828610610e4d5750506064827fffffffffffffffffffffffffffffffffffffffffffffffffffffffffffffffe0601f84610e3b95610d82989911610e40575b01168101036044810184520182610ac7565b610d91565b6000858286010152610e29565b8581018201518487016064015294810194610dea56fea26469706673582212201304a3ab31dde0c1a2166795441388f86f47fc9f04be9fdfd1ddac6b9d8b3dc864736f6c634300080d0033",
    "linkReferences": {}
  },
  "methodIdentifiers": {
    "SCALAR()": "6bf301a4",
    "_setSqrtPrice(uint256)": "4d0b2e79",
    "allocate(address,uint256,uint256)": "ab3f22d5",
    "balanceOf(address,address)": "f7888aec",
    "currentIndex()": "26987b60",
    "getChangeInPriceGivenX(uint256,uint256)": "b667a61f",
    "getChangeInYGivenChangeInPrice(uint256,uint256)": "7cca1724",
    "getCurrentSqrtPrice()": "29fee4e0",
    "getLiquidityAtSqrtPrice(uint256)": "1ffc1e40",
    "getNextSqrtPrice(uint256)": "b4f69430",
    "getSwapAmounts(uint256,uint256,uint256,uint256)": "cb20653f",
    "grid(uint256)": "51d2cc8f",
    "positions(address,uint256)": "c1be6677",
    "remove(uint256,uint256)": "6526db7a",
    "setBalance(address,address,uint256)": "b5c9cbbe",
    "setTokens(address,address)": "cbc7854e",
    "sqrtGrid(uint256)": "7f9bb5e6",
    "swap(uint256,uint256)": "d96073cf",
    "ticks(uint256)": "534cb30d",
    "token0()": "0dfe1681",
    "token1()": "d21220a7",
    "user()": "4f8632ba"
  },
  "id": 0
}