{
  "abi": [
    {
      "inputs": [],
      "stateMutability": "payable",
      "type": "constructor"
    },
    {
      "inputs": [
        {
          "internalType": "uint256",
          "name": "bal",
          "type": "uint256"
        },
        {
          "internalType": "uint256",
          "name": "less",
          "type": "uint256"
        }
      ],
      "name": "BalanceError",
      "type": "error"
    },
    {
      "inputs": [],
      "name": "SetPriceError",
      "type": "error"
    },
    {
      "anonymous": false,
      "inputs": [
        {
          "indexed": true,
          "internalType": "address",
          "name": "to",
          "type": "address"
        },
        {
          "indexed": false,
          "internalType": "uint256",
          "name": "sqrtPrice",
          "type": "uint256"
        },
        {
          "indexed": false,
          "internalType": "uint256",
          "name": "liquidity",
          "type": "uint256"
        }
      ],
      "name": "Allocate",
      "type": "event"
    },
    {
      "inputs": [],
      "name": "SCALAR",
      "outputs": [
        {
          "internalType": "uint256",
          "name": "",
          "type": "uint256"
        }
      ],
      "stateMutability": "view",
      "type": "function"
    },
    {
      "inputs": [
        {
          "internalType": "uint256",
          "name": "desiredPrice",
          "type": "uint256"
        }
      ],
      "name": "_setSqrtPrice",
      "outputs": [
        {
          "internalType": "bool",
          "name": "success",
          "type": "bool"
        }
      ],
      "stateMutability": "nonpayable",
      "type": "function"
    },
    {
      "inputs": [
        {
          "internalType": "address",
          "name": "to",
          "type": "address"
        },
        {
          "internalType": "uint256",
          "name": "liquidity",
          "type": "uint256"
        },
        {
          "internalType": "uint256",
          "name": "sqrtPrice",
          "type": "uint256"
        }
      ],
      "name": "allocate",
      "outputs": [
        {
          "internalType": "uint256",
          "name": "amount0",
          "type": "uint256"
        },
        {
          "internalType": "uint256",
          "name": "amount1",
          "type": "uint256"
        }
      ],
      "stateMutability": "nonpayable",
      "type": "function"
    },
    {
      "inputs": [
        {
          "internalType": "address",
          "name": "",
          "type": "address"
        },
        {
          "internalType": "address",
          "name": "",
          "type": "address"
        }
      ],
      "name": "balanceOf",
      "outputs": [
        {
          "internalType": "uint256",
          "name": "",
          "type": "uint256"
        }
      ],
      "stateMutability": "view",
      "type": "function"
    },
    {
      "inputs": [],
      "name": "currentIndex",
      "outputs": [
        {
          "internalType": "uint256",
          "name": "",
          "type": "uint256"
        }
      ],
      "stateMutability": "view",
      "type": "function"
    },
    {
      "inputs": [
        {
          "internalType": "uint256",
          "name": "sqrtPrice",
          "type": "uint256"
        },
        {
          "internalType": "uint256",
          "name": "liquidity",
          "type": "uint256"
        }
      ],
      "name": "getAmountsGivenSqrtPriceAndLiquidity",
      "outputs": [
        {
          "internalType": "uint256",
          "name": "amount0",
          "type": "uint256"
        },
        {
          "internalType": "uint256",
          "name": "amount1",
          "type": "uint256"
        }
      ],
      "stateMutability": "view",
      "type": "function"
    },
    {
      "inputs": [
        {
          "internalType": "uint256",
          "name": "deltaX",
          "type": "uint256"
        },
        {
          "internalType": "uint256",
          "name": "liquidity",
          "type": "uint256"
        }
      ],
      "name": "getChangeInPriceGivenX",
      "outputs": [
        {
          "internalType": "uint256",
          "name": "deltaSqrtPrice",
          "type": "uint256"
        }
      ],
      "stateMutability": "view",
      "type": "function"
    },
    {
      "inputs": [],
      "name": "getCurrentSqrtPrice",
      "outputs": [
        {
          "internalType": "uint256",
          "name": "",
          "type": "uint256"
        }
      ],
      "stateMutability": "view",
      "type": "function"
    },
    {
      "inputs": [
        {
          "internalType": "uint256",
          "name": "sqrtPrice",
          "type": "uint256"
        }
      ],
      "name": "getLiquidityAtSqrtPrice",
      "outputs": [
        {
          "internalType": "uint256",
          "name": "liquidity",
          "type": "uint256"
        }
      ],
      "stateMutability": "view",
      "type": "function"
    },
    {
      "inputs": [
        {
          "internalType": "uint256",
          "name": "index",
          "type": "uint256"
        }
      ],
      "name": "getNextSqrtPrice",
      "outputs": [
        {
          "internalType": "uint256",
          "name": "nextSqrtPrice",
          "type": "uint256"
        }
      ],
      "stateMutability": "view",
      "type": "function"
    },
    {
      "inputs": [
        {
          "internalType": "uint256",
          "name": "sqrtPriceIndex",
          "type": "uint256"
        }
      ],
      "name": "getReserves",
      "outputs": [
        {
          "internalType": "uint256",
          "name": "reserve0",
          "type": "uint256"
        },
        {
          "internalType": "uint256",
          "name": "reserve1",
          "type": "uint256"
        }
      ],
      "stateMutability": "view",
      "type": "function"
    },
    {
      "inputs": [
        {
          "internalType": "uint256",
          "name": "swapAmount",
          "type": "uint256"
        },
        {
          "internalType": "uint256",
          "name": "currentSqrtPrice",
          "type": "uint256"
        },
        {
          "internalType": "uint256",
          "name": "nextSqrtPrice",
          "type": "uint256"
        },
        {
          "internalType": "uint256",
          "name": "liquidity",
          "type": "uint256"
        }
      ],
      "name": "getSwapAmounts",
      "outputs": [
        {
          "internalType": "uint256",
          "name": "price",
          "type": "uint256"
        },
        {
          "internalType": "uint256",
          "name": "amountIn",
          "type": "uint256"
        },
        {
          "internalType": "uint256",
          "name": "amountOut",
          "type": "uint256"
        },
        {
          "internalType": "uint256",
          "name": "remainder",
          "type": "uint256"
        }
      ],
      "stateMutability": "view",
      "type": "function"
    },
    {
      "inputs": [
        {
          "internalType": "uint256",
          "name": "",
          "type": "uint256"
        }
      ],
      "name": "grid",
      "outputs": [
        {
          "internalType": "uint256",
          "name": "",
          "type": "uint256"
        }
      ],
      "stateMutability": "view",
      "type": "function"
    },
    {
      "inputs": [
        {
          "internalType": "address",
          "name": "",
          "type": "address"
        },
        {
          "internalType": "uint256",
          "name": "",
          "type": "uint256"
        }
      ],
      "name": "positions",
      "outputs": [
        {
          "internalType": "uint256",
          "name": "",
          "type": "uint256"
        }
      ],
      "stateMutability": "view",
      "type": "function"
    },
    {
      "inputs": [
        {
          "internalType": "uint256",
          "name": "amount",
          "type": "uint256"
        },
        {
          "internalType": "uint256",
          "name": "price",
          "type": "uint256"
        }
      ],
      "name": "remove",
      "outputs": [],
      "stateMutability": "nonpayable",
      "type": "function"
    },
    {
      "inputs": [
        {
          "internalType": "address",
          "name": "user",
          "type": "address"
        },
        {
          "internalType": "address",
          "name": "token",
          "type": "address"
        },
        {
          "internalType": "uint256",
          "name": "amount",
          "type": "uint256"
        }
      ],
      "name": "setBalance",
      "outputs": [],
      "stateMutability": "nonpayable",
      "type": "function"
    },
    {
      "inputs": [
        {
          "internalType": "address",
          "name": "token0_",
          "type": "address"
        },
        {
          "internalType": "address",
          "name": "token1_",
          "type": "address"
        }
      ],
      "name": "setTokens",
      "outputs": [],
      "stateMutability": "nonpayable",
      "type": "function"
    },
    {
      "inputs": [
        {
          "internalType": "uint256",
          "name": "",
          "type": "uint256"
        }
      ],
      "name": "sqrtGrid",
      "outputs": [
        {
          "internalType": "uint256",
          "name": "",
          "type": "uint256"
        }
      ],
      "stateMutability": "view",
      "type": "function"
    },
    {
      "inputs": [
        {
          "internalType": "uint256",
          "name": "amount",
          "type": "uint256"
        },
        {
          "internalType": "uint256",
          "name": "limitPrice",
          "type": "uint256"
        }
      ],
      "name": "swap",
      "outputs": [
        {
          "internalType": "uint256",
          "name": "price",
          "type": "uint256"
        },
        {
          "internalType": "uint256",
          "name": "amountIn",
          "type": "uint256"
        },
        {
          "internalType": "uint256",
          "name": "amountOut",
          "type": "uint256"
        },
        {
          "internalType": "uint256",
          "name": "remainder",
          "type": "uint256"
        }
      ],
      "stateMutability": "nonpayable",
      "type": "function"
    },
    {
      "inputs": [
        {
          "internalType": "uint256",
          "name": "",
          "type": "uint256"
        }
      ],
      "name": "ticks",
      "outputs": [
        {
          "internalType": "uint256",
          "name": "",
          "type": "uint256"
        }
      ],
      "stateMutability": "view",
      "type": "function"
    },
    {
      "inputs": [],
      "name": "token0",
      "outputs": [
        {
          "internalType": "address",
          "name": "",
          "type": "address"
        }
      ],
      "stateMutability": "view",
      "type": "function"
    },
    {
      "inputs": [],
      "name": "token1",
      "outputs": [
        {
          "internalType": "address",
          "name": "",
          "type": "address"
        }
      ],
      "stateMutability": "view",
      "type": "function"
    },
    {
      "inputs": [],
      "name": "user",
      "outputs": [
        {
          "internalType": "address",
          "name": "",
          "type": "address"
        }
      ],
      "stateMutability": "view",
      "type": "function"
    }
  ],
  "bytecode": {
    "object": "0x608060405261000c61009a565b6001908181526020906004828201526009604082015260106060820152601960808201526006906000905b60058210610084576100758461005b61004e61009a565b6001815291820160029052565b6003604082015260046060820152600560808201526100cf565b60405161126690816100fd8239f35b805160ff16835591840191908401908301610037565b6040519060a082016001600160401b038111838210176100b957604052565b634e487b7160e01b600052604160045260246000fd5b600b906000905b600582106100e357505050565b600160208260ff839451168655019301910190916100d656fe60806040526004361015610013575b600080fd5b60003560e01c80630dfe1681146101d65780631ffc1e401461019757806326987b60146101cd57806329fee4e0146101c45780632ba5adfb146101bb5780634d0b2e79146101b25780634f8632ba146101a957806351d2cc8f146101a0578063534cb30d146101975780636526db7a1461018e5780636bf301a4146101855780637f9bb5e61461017c5780638ea7495c14610173578063ab3f22d51461016a578063b4f6943014610161578063b5c9cbbe14610158578063b667a61f1461014f578063c1be667714610146578063cb20653f1461013d578063cbc7854e14610134578063d21220a71461012b578063d96073cf146101225763f7888aec1461011a57600080fd5b61000e610b96565b5061000e61092e565b5061000e6108f9565b5061000e610883565b5061000e610838565b5061000e6107e2565b5061000e6107b8565b5061000e610743565b5061000e610724565b5061000e6104c8565b5061000e610446565b5061000e610419565b5061000e6103f5565b5061000e61037d565b5061000e61020b565b5061000e610350565b5061000e6102da565b5061000e6102b1565b5061000e61027b565b5061000e610257565b5061000e610238565b503461000e57600060031936011261000e57602073ffffffffffffffffffffffffffffffffffffffff60005416604051908152f35b503461000e57602060031936011261000e5760043560005260056020526020604060002054604051908152f35b503461000e57600060031936011261000e576020601054604051908152f35b503461000e57600060031936011261000e576020610273610e4e565b604051908152f35b503461000e57604060031936011261000e5761029b602435600435611051565b60408051928352602083019190915290f35b0390f35b503461000e57602060031936011261000e5760206102d0600435610ddd565b6040519015158152f35b503461000e57600060031936011261000e57602073ffffffffffffffffffffffffffffffffffffffff60025416604051908152f35b600581101561032157600b0190600090565b7f4e487b7100000000000000000000000000000000000000000000000000000000600052603260045260246000fd5b503461000e57602060031936011261000e57600435600581101561000e5760209060060154604051908152f35b503461000e57604060031936011261000e5760043560243590600091338352600460205260408320818452602052604083208281548181106103e8575b03905582526005602052604082209081548181106103db575b039055604051f35b6103e3610d7e565b6103d3565b6103f0610d7e565b6103ba565b503461000e57600060031936011261000e576020604051670de0b6b3a76400008152f35b503461000e57602060031936011261000e57600435600581101561000e57602090600b0154604051908152f35b503461000e57602060031936011261000e5761029b61046660043561030f565b90549060031b1c80600052600560205260406000205490611051565b6004359073ffffffffffffffffffffffffffffffffffffffff8216820361000e57565b6024359073ffffffffffffffffffffffffffffffffffffffff8216820361000e57565b503461000e57606060031936011261000e576107106104e5610482565b602435907fe2a6fbb55be829f7f41ce6980e5fc3057544b2788af2e168fbf7a3db02284e7b73ffffffffffffffffffffffffffffffffffffffff6044359261052d8585611051565b969095610544866000526005602052604060002090565b61054f828254610dc5565b90556105bc61057e3373ffffffffffffffffffffffffffffffffffffffff166000526003602052604060002090565b60005473ffffffffffffffffffffffffffffffffffffffff165b73ffffffffffffffffffffffffffffffffffffffff16600052602052604060002090565b6105c7888254610dae565b90556106146105f63373ffffffffffffffffffffffffffffffffffffffff166000526003602052604060002090565b60015473ffffffffffffffffffffffffffffffffffffffff16610598565b61061f898254610dae565b905561064e61057e3073ffffffffffffffffffffffffffffffffffffffff166000526003602052604060002090565b610659888254610dc5565b90556106886105f63073ffffffffffffffffffffffffffffffffffffffff166000526003602052604060002090565b610693898254610dc5565b90556106e8306106c38573ffffffffffffffffffffffffffffffffffffffff166000526003602052604060002090565b9073ffffffffffffffffffffffffffffffffffffffff16600052602052604060002090565b6106f3828254610dc5565b905560405193849316958360209093929193604081019481520152565b0390a2604080519182526020820192909252f35b503461000e57602060031936011261000e576020610273600435610e63565b503461000e57606060031936011261000e5761075d610482565b73ffffffffffffffffffffffffffffffffffffffff61077a6104a5565b911660005260036020526107b56044359160406000209073ffffffffffffffffffffffffffffffffffffffff16600052602052604060002090565b55005b503461000e57604060031936011261000e5760206102736004356107dd602435610ea4565b611018565b503461000e57604060031936011261000e5773ffffffffffffffffffffffffffffffffffffffff610811610482565b16600052600460205260406000206024356000526020526020604060002054604051908152f35b503461000e57608060031936011261000e576102ad610861606435604435602435600435610eeb565b6040805194855260208501939093529183015260608201529081906080820190565b503461000e57604060031936011261000e5761089d610482565b6108a56104a5565b73ffffffffffffffffffffffffffffffffffffffff90817fffffffffffffffffffffffff00000000000000000000000000000000000000009316836000541617600055169060015416176001556000604051f35b503461000e57600060031936011261000e57602073ffffffffffffffffffffffffffffffffffffffff60015416604051908152f35b503461000e57604060031936011261000e576109ae61094b610e4e565b61095f816000526005602052604060002090565b549061096c601054610e63565b9061097d610978610c9a565b611152565b61098e81610989610cd3565b6111b6565b61099a83610989610d0c565b6109a682610989610d45565b600435610eeb565b6109ba84929394610ddd565b503360009081526003602052604090209284610a156109ee60005473ffffffffffffffffffffffffffffffffffffffff1690565b80969073ffffffffffffffffffffffffffffffffffffffff16600052602052604060002090565b5410610b2b57610a4d6102ad93946106c33373ffffffffffffffffffffffffffffffffffffffff166000526003602052604060002090565b610a58868254610dae565b9055610a876105f63373ffffffffffffffffffffffffffffffffffffffff166000526003602052604060002090565b610a92828254610dc5565b9055610ac161057e3073ffffffffffffffffffffffffffffffffffffffff166000526003602052604060002090565b610acc868254610dc5565b9055610afb6105f63073ffffffffffffffffffffffffffffffffffffffff166000526003602052604060002090565b610b06828254610dae565b9055604051948594859094939260609260808301968352602083015260408201520152565b84610b5a856106c33373ffffffffffffffffffffffffffffffffffffffff166000526003602052604060002090565b546040517f8c68691800000000000000000000000000000000000000000000000000000000815260048101919091526024810191909152604490fd5b503461000e57604060031936011261000e576020610c05610bb5610482565b73ffffffffffffffffffffffffffffffffffffffff610bd26104a5565b91166000526003835260406000209073ffffffffffffffffffffffffffffffffffffffff16600052602052604060002090565b54604051908152f35b6040810190811067ffffffffffffffff821117610c2a57604052565b7f4e487b7100000000000000000000000000000000000000000000000000000000600052604160045260246000fd5b90601f7fffffffffffffffffffffffffffffffffffffffffffffffffffffffffffffffe0910116810190811067ffffffffffffffff821117610c2a57604052565b60405190610ca782610c0e565b601d82527f43616c6c696e672067657453776170416d6f756e747320776974683a200000006020830152565b60405190610ce082610c0e565b601182527f63757272656e74207371727450726963650000000000000000000000000000006020830152565b60405190610d1982610c0e565b600982527f6c697175696469747900000000000000000000000000000000000000000000006020830152565b60405190610d5282610c0e565b600e82527f6e657874207371727450726963650000000000000000000000000000000000006020830152565b507f4e487b7100000000000000000000000000000000000000000000000000000000600052601160045260246000fd5b818110610db9570390565b610dc1610d7e565b0390565b81198111610dd1570190565b610dd9610d7e565b0190565b9060009160005b60058103610e21575b50508115610df757565b60046040517f65d89658000000000000000000000000000000000000000000000000000000008152fd5b610e2a8161030f565b90549060031b1c8214610e3f57600101610de4565b60105550600191503880610ded565b610e5960105461030f565b90549060031b1c90565b6001610e59917ffffffffffffffffffffffffffffffffffffffffffffffffffffffffffffffffe8111610e97575b0161030f565b610e9f610d7e565b610e91565b670de0b6b3a764000090807fffffffffffffffffffffffffffffffffffffffffffffffffffffffffffffffff04821181151516610edf570290565b610ee7610d7e565b0290565b93909192600094600091610f02826107dd83610ea4565b85871061100b575b85870390670de0b6b3a7640000827fffffffffffffffffffffffffffffffffffffffffffffffffffffffffffffffff048111888a141516610ffe575b6040517f6c0f698000000000000000000000000000000000000000000000000000000000602082015260248101839052908302604482018190529190610fc090610fbb81606481015b037fffffffffffffffffffffffffffffffffffffffffffffffffffffffffffffffe08101835282610c59565b61119b565b10610ff4575b90610fd091611051565b9290929483968814600014610fec575050818110610db9570390565b965092915050565b9596508695610fc6565b611006610d7e565b610f46565b611013610d7e565b610f0a565b8115611022570490565b7f4e487b7100000000000000000000000000000000000000000000000000000000600052601260045260246000fd5b7fffffffffffffffffffffffffffffffffffffffffffffffffffffffffffffffff9291670de0b6b3a76400009182918115158287048411166110d6575b8083830296048115159080851182166110c9575b6110ae88868502611018565b9711166110bc575b02020490565b6110c4610d7e565b6110b6565b6110d1610d7e565b6110a2565b6110de610d7e565b61108e565b91908251928382526000905b84821061113a5750601f84602094957fffffffffffffffffffffffffffffffffffffffffffffffffffffffffffffffe0931161112d575b0116010190565b6000858286010152611126565b906020908180828501015190828601015201906110ef565b610f8f610fbb611199926040519283917f41304fac0000000000000000000000000000000000000000000000000000000060208401526020602484015260448301906110e3565b565b600080916020815191016a636f6e736f6c652e6c6f675afa50565b610fbb6111fe91611199936040519384927f9710a9d00000000000000000000000000000000000000000000000000000000060208501526040602485015260648401906110e3565b906044830152037fffffffffffffffffffffffffffffffffffffffffffffffffffffffffffffffe08101835282610c5956fea2646970667358221220b2b398e3627f565eb1c99431d6bfd4699cda42e917cc934b5d3b12e5699f78ab64736f6c634300080d0033",
    "linkReferences": {}
  },
  "methodIdentifiers": {
    "SCALAR()": "6bf301a4",
    "_setSqrtPrice(uint256)": "4d0b2e79",
    "allocate(address,uint256,uint256)": "ab3f22d5",
    "balanceOf(address,address)": "f7888aec",
    "currentIndex()": "26987b60",
    "getAmountsGivenSqrtPriceAndLiquidity(uint256,uint256)": "2ba5adfb",
    "getChangeInPriceGivenX(uint256,uint256)": "b667a61f",
    "getCurrentSqrtPrice()": "29fee4e0",
    "getLiquidityAtSqrtPrice(uint256)": "1ffc1e40",
    "getNextSqrtPrice(uint256)": "b4f69430",
    "getReserves(uint256)": "8ea7495c",
    "getSwapAmounts(uint256,uint256,uint256,uint256)": "cb20653f",
    "grid(uint256)": "51d2cc8f",
    "positions(address,uint256)": "c1be6677",
    "remove(uint256,uint256)": "6526db7a",
    "setBalance(address,address,uint256)": "b5c9cbbe",
    "setTokens(address,address)": "cbc7854e",
    "sqrtGrid(uint256)": "7f9bb5e6",
    "swap(uint256,uint256)": "d96073cf",
    "ticks(uint256)": "534cb30d",
    "token0()": "0dfe1681",
    "token1()": "d21220a7",
    "user()": "4f8632ba"
  },
  "id": 0
}