{
  "abi": [
    {
      "inputs": [
        {
          "internalType": "address",
          "name": "",
          "type": "address"
        },
        {
          "internalType": "address",
          "name": "",
          "type": "address"
        }
      ],
      "name": "balanceOf",
      "outputs": [
        {
          "internalType": "uint256",
          "name": "",
          "type": "uint256"
        }
      ],
      "stateMutability": "view",
      "type": "function"
    },
    {
      "inputs": [
        {
          "internalType": "address",
          "name": "user",
          "type": "address"
        },
        {
          "internalType": "address",
          "name": "token",
          "type": "address"
        },
        {
          "internalType": "uint256",
          "name": "amount",
          "type": "uint256"
        }
      ],
      "name": "setBalance",
      "outputs": [],
      "stateMutability": "nonpayable",
      "type": "function"
    },
    {
      "inputs": [
        {
          "internalType": "address",
          "name": "token0_",
          "type": "address"
        },
        {
          "internalType": "address",
          "name": "token1_",
          "type": "address"
        }
      ],
      "name": "setTokens",
      "outputs": [],
      "stateMutability": "nonpayable",
      "type": "function"
    },
    {
      "inputs": [],
      "name": "token0",
      "outputs": [
        {
          "internalType": "address",
          "name": "",
          "type": "address"
        }
      ],
      "stateMutability": "view",
      "type": "function"
    },
    {
      "inputs": [],
      "name": "token1",
      "outputs": [
        {
          "internalType": "address",
          "name": "",
          "type": "address"
        }
      ],
      "stateMutability": "view",
      "type": "function"
    },
    {
      "inputs": [],
      "name": "user",
      "outputs": [
        {
          "internalType": "address",
          "name": "",
          "type": "address"
        }
      ],
      "stateMutability": "view",
      "type": "function"
    }
  ],
  "bytecode": {
    "object": "0x60808060405234610016576103ca908161001c8239f35b600080fdfe608080604052600436101561001357600080fd5b6000803560e01c9182630dfe16811461009657505080634f8632ba1461008d578063b5c9cbbe14610084578063cbc7854e1461007b578063d21220a7146100725763f7888aec14610065575b38600080fd5b61006d6102fe565b61005f565b5061006d6102ab565b5061006d610217565b5061006d610184565b5061006d6100e6565b346100e257817ffffffffffffffffffffffffffffffffffffffffffffffffffffffffffffffffc3601126100e25773ffffffffffffffffffffffffffffffffffffffff60209254168152f35b5080fd5b50346101395760007ffffffffffffffffffffffffffffffffffffffffffffffffffffffffffffffffc36011261013957602073ffffffffffffffffffffffffffffffffffffffff60025416604051908152f35b600080fd5b6004359073ffffffffffffffffffffffffffffffffffffffff8216820361013957565b6024359073ffffffffffffffffffffffffffffffffffffffff8216820361013957565b50346101395760607ffffffffffffffffffffffffffffffffffffffffffffffffffffffffffffffffc360112610139576101bc61013e565b73ffffffffffffffffffffffffffffffffffffffff6101d9610161565b911660005260036020526102146044359160406000209073ffffffffffffffffffffffffffffffffffffffff16600052602052604060002090565b55005b50346101395760407ffffffffffffffffffffffffffffffffffffffffffffffffffffffffffffffffc3601126101395761024f61013e565b610257610161565b73ffffffffffffffffffffffffffffffffffffffff90817fffffffffffffffffffffffff00000000000000000000000000000000000000009316836000541617600055169060015416176001556000604051f35b50346101395760007ffffffffffffffffffffffffffffffffffffffffffffffffffffffffffffffffc36011261013957602073ffffffffffffffffffffffffffffffffffffffff60015416604051908152f35b50346101395760407ffffffffffffffffffffffffffffffffffffffffffffffffffffffffffffffffc36011261013957602061038b61033b61013e565b73ffffffffffffffffffffffffffffffffffffffff610358610161565b91166000526003835260406000209073ffffffffffffffffffffffffffffffffffffffff16600052602052604060002090565b54604051908152f3fea26469706673582212202ad5c6cebc1a2a5d070ae5421827213ae91f7b4247024ac6edd8f8744b1016e164736f6c634300080d0033",
    "linkReferences": {}
  },
  "methodIdentifiers": {
    "balanceOf(address,address)": "f7888aec",
    "setBalance(address,address,uint256)": "b5c9cbbe",
    "setTokens(address,address)": "cbc7854e",
    "token0()": "0dfe1681",
    "token1()": "d21220a7",
    "user()": "4f8632ba"
  },
  "id": 0
}